{
  "contractName": "pesuUniversity",
  "abi": [
    {
      "anonymous": false,
      "inputs": [
        {
          "indexed": true,
          "internalType": "string",
          "name": "srn",
          "type": "string"
        },
        {
          "indexed": false,
          "internalType": "string",
          "name": "course",
          "type": "string"
        },
        {
          "indexed": false,
          "internalType": "string",
          "name": "ipfsHash",
          "type": "string"
        }
      ],
      "name": "CertificateIssued",
      "type": "event"
    },
    {
      "inputs": [
        {
          "internalType": "address",
          "name": "",
          "type": "address"
        }
      ],
      "name": "Students",
      "outputs": [
        {
          "internalType": "string",
          "name": "Name",
          "type": "string"
        },
        {
          "internalType": "string",
          "name": "SRN",
          "type": "string"
        },
        {
          "internalType": "string",
          "name": "Course",
          "type": "string"
        },
        {
          "internalType": "uint256",
          "name": "Semester",
          "type": "uint256"
        },
        {
          "internalType": "bool",
          "name": "isRegistered",
          "type": "bool"
        }
      ],
      "stateMutability": "view",
      "type": "function"
    },
    {
      "inputs": [
        {
          "internalType": "string",
          "name": "",
          "type": "string"
        }
      ],
      "name": "certificates",
      "outputs": [
        {
          "internalType": "string",
          "name": "SRN",
          "type": "string"
        },
        {
          "internalType": "string",
          "name": "Course",
          "type": "string"
        },
        {
          "internalType": "string",
          "name": "IPFSHash",
          "type": "string"
        }
      ],
      "stateMutability": "view",
      "type": "function"
    },
    {
      "inputs": [
        {
          "internalType": "string",
          "name": "_Name",
          "type": "string"
        },
        {
          "internalType": "string",
          "name": "_SRN",
          "type": "string"
        },
        {
          "internalType": "string",
          "name": "_Course",
          "type": "string"
        },
        {
          "internalType": "uint256",
          "name": "Semester",
          "type": "uint256"
        }
      ],
      "name": "registerStudent",
      "outputs": [],
      "stateMutability": "nonpayable",
      "type": "function"
    },
    {
      "inputs": [
        {
          "internalType": "address",
          "name": "_student",
          "type": "address"
        }
      ],
      "name": "isStudentValid",
      "outputs": [
        {
          "internalType": "bool",
          "name": "",
          "type": "bool"
        }
      ],
      "stateMutability": "view",
      "type": "function"
    },
    {
      "inputs": [
        {
          "internalType": "string",
          "name": "_srn",
          "type": "string"
        },
        {
          "internalType": "string",
          "name": "_course",
          "type": "string"
        },
        {
          "internalType": "string",
          "name": "_ipfsHash",
          "type": "string"
        }
      ],
      "name": "issueCertificate",
      "outputs": [],
      "stateMutability": "nonpayable",
      "type": "function"
    },
    {
      "inputs": [
        {
          "internalType": "string",
          "name": "_srn",
          "type": "string"
        }
      ],
      "name": "getCertificate",
      "outputs": [
        {
          "internalType": "string",
          "name": "",
          "type": "string"
        },
        {
          "internalType": "string",
          "name": "",
          "type": "string"
        },
        {
          "internalType": "string",
          "name": "",
          "type": "string"
        }
      ],
      "stateMutability": "view",
      "type": "function"
    }
  ],
  "bytecode": "0x608060405234801561001057600080fd5b5061188e806100206000396000f3fe608060405234801561001057600080fd5b50600436106100625760003560e01c806306ef5c0b146100675780632d03448b1461009b57806364d01891146100b75780638f2b91ea146100e7578063beec1caa14610119578063ed0f2e7514610135575b600080fd5b610081600480360381019061007c9190610d6e565b610167565b604051610092959493929190610e5f565b60405180910390f35b6100b560048036038101906100b09190611028565b610342565b005b6100d160048036038101906100cc9190610d6e565b6104d5565b6040516100de91906110e3565b60405180910390f35b61010160048036038101906100fc91906110fe565b61052d565b60405161011093929190611147565b60405180910390f35b610133600480360381019061012e9190611193565b610705565b005b61014f600480360381019061014a91906110fe565b610a73565b60405161015e93929190611147565b60405180910390f35b600060205280600052604060002060009150905080600001805461018a90611269565b80601f01602080910402602001604051908101604052809291908181526020018280546101b690611269565b80156102035780601f106101d857610100808354040283529160200191610203565b820191906000526020600020905b8154815290600101906020018083116101e657829003601f168201915b50505050509080600101805461021890611269565b80601f016020809104026020016040519081016040528092919081815260200182805461024490611269565b80156102915780601f1061026657610100808354040283529160200191610291565b820191906000526020600020905b81548152906001019060200180831161027457829003601f168201915b5050505050908060020180546102a690611269565b80601f01602080910402602001604051908101604052809291908181526020018280546102d290611269565b801561031f5780601f106102f45761010080835404028352916020019161031f565b820191906000526020600020905b81548152906001019060200180831161030257829003601f168201915b5050505050908060030154908060040160009054906101000a900460ff16905085565b836000803373ffffffffffffffffffffffffffffffffffffffff1673ffffffffffffffffffffffffffffffffffffffff16815260200190815260200160002060000190816103909190611446565b50826000803373ffffffffffffffffffffffffffffffffffffffff1673ffffffffffffffffffffffffffffffffffffffff16815260200190815260200160002060010190816103df9190611446565b50806000803373ffffffffffffffffffffffffffffffffffffffff1673ffffffffffffffffffffffffffffffffffffffff16815260200190815260200160002060030181905550816000803373ffffffffffffffffffffffffffffffffffffffff1673ffffffffffffffffffffffffffffffffffffffff16815260200190815260200160002060020190816104749190611446565b5060016000803373ffffffffffffffffffffffffffffffffffffffff1673ffffffffffffffffffffffffffffffffffffffff16815260200190815260200160002060040160006101000a81548160ff02191690831515021790555050505050565b60008060008373ffffffffffffffffffffffffffffffffffffffff1673ffffffffffffffffffffffffffffffffffffffff16815260200190815260200160002060040160009054906101000a900460ff169050919050565b60018180516020810182018051848252602083016020850120818352809550505050505060009150905080600001805461056690611269565b80601f016020809104026020016040519081016040528092919081815260200182805461059290611269565b80156105df5780601f106105b4576101008083540402835291602001916105df565b820191906000526020600020905b8154815290600101906020018083116105c257829003601f168201915b5050505050908060010180546105f490611269565b80601f016020809104026020016040519081016040528092919081815260200182805461062090611269565b801561066d5780601f106106425761010080835404028352916020019161066d565b820191906000526020600020905b81548152906001019060200180831161065057829003601f168201915b50505050509080600201805461068290611269565b80601f01602080910402602001604051908101604052809291908181526020018280546106ae90611269565b80156106fb5780601f106106d0576101008083540402835291602001916106fb565b820191906000526020600020905b8154815290600101906020018083116106de57829003601f168201915b5050505050905083565b60008060003373ffffffffffffffffffffffffffffffffffffffff1673ffffffffffffffffffffffffffffffffffffffff168152602001908152602001600020600001805461075390611269565b905003610795576040517f08c379a000000000000000000000000000000000000000000000000000000000815260040161078c90611564565b60405180910390fd5b826040516020016107a691906115c0565b604051602081830303815290604052805190602001206000803373ffffffffffffffffffffffffffffffffffffffff1673ffffffffffffffffffffffffffffffffffffffff16815260200190815260200160002060010160405160200161080d919061165a565b6040516020818303038152906040528051906020012014610863576040517f08c379a000000000000000000000000000000000000000000000000000000000815260040161085a906116bd565b60405180910390fd5b8160405160200161087491906115c0565b604051602081830303815290604052805190602001206000803373ffffffffffffffffffffffffffffffffffffffff1673ffffffffffffffffffffffffffffffffffffffff1681526020019081526020016000206002016040516020016108db919061165a565b6040516020818303038152906040528051906020012014610931576040517f08c379a000000000000000000000000000000000000000000000000000000000815260040161092890611729565b60405180910390fd5b600060018460405161094391906115c0565b9081526020016040518091039020600201805461095f90611269565b9050146109a1576040517f08c379a000000000000000000000000000000000000000000000000000000000815260040161099890611795565b60405180910390fd5b6040518060600160405280848152602001838152602001828152506001846040516109cc91906115c0565b908152602001604051809103902060008201518160000190816109ef9190611446565b506020820151816001019081610a059190611446565b506040820151816002019081610a1b9190611446565b5090505082604051610a2d91906115c0565b60405180910390207fc9aed1c64acf67836d70d23befa83b398ae1cc3d4dfae56bfe219d38128dd2438383604051610a669291906117b5565b60405180910390a2505050565b60608060606000600185604051610a8a91906115c0565b90815260200160405180910390206002018054610aa690611269565b905003610ae8576040517f08c379a0000000000000000000000000000000000000000000000000000000008152600401610adf90611838565b60405180910390fd5b600184604051610af891906115c0565b9081526020016040518091039020600001600185604051610b1991906115c0565b9081526020016040518091039020600101600186604051610b3a91906115c0565b9081526020016040518091039020600201828054610b5790611269565b80601f0160208091040260200160405190810160405280929190818152602001828054610b8390611269565b8015610bd05780601f10610ba557610100808354040283529160200191610bd0565b820191906000526020600020905b815481529060010190602001808311610bb357829003601f168201915b50505050509250818054610be390611269565b80601f0160208091040260200160405190810160405280929190818152602001828054610c0f90611269565b8015610c5c5780601f10610c3157610100808354040283529160200191610c5c565b820191906000526020600020905b815481529060010190602001808311610c3f57829003601f168201915b50505050509150808054610c6f90611269565b80601f0160208091040260200160405190810160405280929190818152602001828054610c9b90611269565b8015610ce85780601f10610cbd57610100808354040283529160200191610ce8565b820191906000526020600020905b815481529060010190602001808311610ccb57829003601f168201915b505050505090509250925092509193909250565b6000604051905090565b600080fd5b600080fd5b600073ffffffffffffffffffffffffffffffffffffffff82169050919050565b6000610d3b82610d10565b9050919050565b610d4b81610d30565b8114610d5657600080fd5b50565b600081359050610d6881610d42565b92915050565b600060208284031215610d8457610d83610d06565b5b6000610d9284828501610d59565b91505092915050565b600081519050919050565b600082825260208201905092915050565b60005b83811015610dd5578082015181840152602081019050610dba565b60008484015250505050565b6000601f19601f8301169050919050565b6000610dfd82610d9b565b610e078185610da6565b9350610e17818560208601610db7565b610e2081610de1565b840191505092915050565b6000819050919050565b610e3e81610e2b565b82525050565b60008115159050919050565b610e5981610e44565b82525050565b600060a0820190508181036000830152610e798188610df2565b90508181036020830152610e8d8187610df2565b90508181036040830152610ea18186610df2565b9050610eb06060830185610e35565b610ebd6080830184610e50565b9695505050505050565b600080fd5b600080fd5b7f4e487b7100000000000000000000000000000000000000000000000000000000600052604160045260246000fd5b610f0982610de1565b810181811067ffffffffffffffff82111715610f2857610f27610ed1565b5b80604052505050565b6000610f3b610cfc565b9050610f478282610f00565b919050565b600067ffffffffffffffff821115610f6757610f66610ed1565b5b610f7082610de1565b9050602081019050919050565b82818337600083830152505050565b6000610f9f610f9a84610f4c565b610f31565b905082815260208101848484011115610fbb57610fba610ecc565b5b610fc6848285610f7d565b509392505050565b600082601f830112610fe357610fe2610ec7565b5b8135610ff3848260208601610f8c565b91505092915050565b61100581610e2b565b811461101057600080fd5b50565b60008135905061102281610ffc565b92915050565b6000806000806080858703121561104257611041610d06565b5b600085013567ffffffffffffffff8111156110605761105f610d0b565b5b61106c87828801610fce565b945050602085013567ffffffffffffffff81111561108d5761108c610d0b565b5b61109987828801610fce565b935050604085013567ffffffffffffffff8111156110ba576110b9610d0b565b5b6110c687828801610fce565b92505060606110d787828801611013565b91505092959194509250565b60006020820190506110f86000830184610e50565b92915050565b60006020828403121561111457611113610d06565b5b600082013567ffffffffffffffff81111561113257611131610d0b565b5b61113e84828501610fce565b91505092915050565b600060608201905081810360008301526111618186610df2565b905081810360208301526111758185610df2565b905081810360408301526111898184610df2565b9050949350505050565b6000806000606084860312156111ac576111ab610d06565b5b600084013567ffffffffffffffff8111156111ca576111c9610d0b565b5b6111d686828701610fce565b935050602084013567ffffffffffffffff8111156111f7576111f6610d0b565b5b61120386828701610fce565b925050604084013567ffffffffffffffff81111561122457611223610d0b565b5b61123086828701610fce565b9150509250925092565b7f4e487b7100000000000000000000000000000000000000000000000000000000600052602260045260246000fd5b6000600282049050600182168061128157607f821691505b6020821081036112945761129361123a565b5b50919050565b60008190508160005260206000209050919050565b60006020601f8301049050919050565b600082821b905092915050565b6000600883026112fc7fffffffffffffffffffffffffffffffffffffffffffffffffffffffffffffffff826112bf565b61130686836112bf565b95508019841693508086168417925050509392505050565b6000819050919050565b600061134361133e61133984610e2b565b61131e565b610e2b565b9050919050565b6000819050919050565b61135d83611328565b6113716113698261134a565b8484546112cc565b825550505050565b600090565b611386611379565b611391818484611354565b505050565b5b818110156113b5576113aa60008261137e565b600181019050611397565b5050565b601f8211156113fa576113cb8161129a565b6113d4846112af565b810160208510156113e3578190505b6113f76113ef856112af565b830182611396565b50505b505050565b600082821c905092915050565b600061141d600019846008026113ff565b1980831691505092915050565b6000611436838361140c565b9150826002028217905092915050565b61144f82610d9b565b67ffffffffffffffff81111561146857611467610ed1565b5b6114728254611269565b61147d8282856113b9565b600060209050601f8311600181146114b0576000841561149e578287015190505b6114a8858261142a565b865550611510565b601f1984166114be8661129a565b60005b828110156114e6578489015182556001820191506020850194506020810190506114c1565b8683101561150357848901516114ff601f89168261140c565b8355505b6001600288020188555050505b505050505050565b7f4e6f74206120726567697374657265642073747564656e740000000000000000600082015250565b600061154e601883610da6565b915061155982611518565b602082019050919050565b6000602082019050818103600083015261157d81611541565b9050919050565b600081905092915050565b600061159a82610d9b565b6115a48185611584565b93506115b4818560208601610db7565b80840191505092915050565b60006115cc828461158f565b915081905092915050565b600081546115e481611269565b6115ee8186611584565b94506001821660008114611609576001811461161e57611651565b60ff1983168652811515820286019350611651565b6116278561129a565b60005b838110156116495781548189015260018201915060208101905061162a565b838801955050505b50505092915050565b600061166682846115d7565b915081905092915050565b7f53524e206d69736d617463680000000000000000000000000000000000000000600082015250565b60006116a7600c83610da6565b91506116b282611671565b602082019050919050565b600060208201905081810360008301526116d68161169a565b9050919050565b7f436f75727365206d69736d617463680000000000000000000000000000000000600082015250565b6000611713600f83610da6565b915061171e826116dd565b602082019050919050565b6000602082019050818103600083015261174281611706565b9050919050565b7f436572746966696361746520616c726561647920657869737473000000000000600082015250565b600061177f601a83610da6565b915061178a82611749565b602082019050919050565b600060208201905081810360008301526117ae81611772565b9050919050565b600060408201905081810360008301526117cf8185610df2565b905081810360208301526117e38184610df2565b90509392505050565b7f4e6f20636572746966696361746520666f756e64000000000000000000000000600082015250565b6000611822601483610da6565b915061182d826117ec565b602082019050919050565b6000602082019050818103600083015261185181611815565b905091905056fea264697066735822122001a010a05bef51739fabc78859fd15db2be3395c8ecb7f48974c178ab82d556f64736f6c63430008130033",
  "immutableReferences": {},
  "source": "// SPDX-License-Identifier: MIT\npragma solidity ^0.8.19;\n\ncontract pesuUniversity {\n\n    struct Student {\n        string Name;\n        string SRN;\n        string Course;\n        uint Semester;\n        bool isRegistered;\n    }\n\n    mapping(address => Student) public Students;\n\n    function registerStudent(string memory _Name, string memory _SRN, string memory _Course, uint256 Semester) public {\n        Students[msg.sender].Name = _Name;\n        Students[msg.sender].SRN = _SRN;\n        Students[msg.sender].Semester = Semester;\n        Students[msg.sender].Course = _Course;\n        Students[msg.sender].isRegistered = true;\n    }\n\n    function isStudentValid(address _student) public view returns (bool) {\n        return Students[_student].isRegistered;\n    }\n\n    struct CourseCertificate {\n        string SRN;\n        string Course;\n        string IPFSHash;\n    }\n\n    mapping(string => CourseCertificate) public certificates;\n\n    event CertificateIssued(string indexed srn, string course, string ipfsHash);\n\n    function issueCertificate(string memory _srn, string memory _course, string memory _ipfsHash) public {\n        require(bytes(Students[msg.sender].Name).length != 0, \"Not a registered student\");\n        require(keccak256(abi.encodePacked(Students[msg.sender].SRN)) == keccak256(abi.encodePacked(_srn)), \"SRN mismatch\");\n        require(keccak256(abi.encodePacked(Students[msg.sender].Course)) == keccak256(abi.encodePacked(_course)), \"Course mismatch\");\n        require(bytes(certificates[_srn].IPFSHash).length == 0, \"Certificate already exists\");\n\n        certificates[_srn] = CourseCertificate(_srn, _course, _ipfsHash);\n        emit CertificateIssued(_srn, _course, _ipfsHash);\n    }\n\n    function getCertificate(string memory _srn) public view returns (string memory, string memory, string memory) {\n        require(bytes(certificates[_srn].IPFSHash).length != 0, \"No certificate found\");\n        return (certificates[_srn].SRN, certificates[_srn].Course, certificates[_srn].IPFSHash);\n    }\n}\n",
  "sourcePath": "/home/pro696969/projects/DeciVerification/contracts/pesuniversity.sol",
  "compiler": {
    "name": "solc",
    "version": "0.8.19+commit.7dd6d404.Emscripten.clang"
  },
  "schemaVersion": "3.4.16",
  "updatedAt": "2025-04-10T13:28:09.140Z",
  "devdoc": {
    "kind": "dev",
    "methods": {},
    "version": 1
  },
  "userdoc": {
    "kind": "user",
    "methods": {},
    "version": 1
  }
}