{
  "contractName": "pesuniversity",
  "abi": [
    {
      "anonymous": false,
      "inputs": [
        {
          "indexed": true,
          "internalType": "string",
          "name": "srn",
          "type": "string"
        },
        {
          "indexed": false,
          "internalType": "string",
          "name": "course",
          "type": "string"
        },
        {
          "indexed": false,
          "internalType": "string",
          "name": "ipfsHash",
          "type": "string"
        }
      ],
      "name": "CertificateIssued",
      "type": "event"
    },
    {
      "inputs": [
        {
          "internalType": "address",
          "name": "",
          "type": "address"
        }
      ],
      "name": "Students",
      "outputs": [
        {
          "internalType": "string",
          "name": "Name",
          "type": "string"
        },
        {
          "internalType": "string",
          "name": "SRN",
          "type": "string"
        },
        {
          "internalType": "string",
          "name": "Course",
          "type": "string"
        },
        {
          "internalType": "uint256",
          "name": "Semester",
          "type": "uint256"
        },
        {
          "internalType": "bool",
          "name": "isRegistered",
          "type": "bool"
        },
        {
          "internalType": "bool",
          "name": "isEligible",
          "type": "bool"
        },
        {
          "internalType": "string",
          "name": "certificateIPFSHash",
          "type": "string"
        }
      ],
      "stateMutability": "view",
      "type": "function",
      "constant": true
    },
    {
      "inputs": [
        {
          "internalType": "string",
          "name": "",
          "type": "string"
        }
      ],
      "name": "certificates",
      "outputs": [
        {
          "internalType": "string",
          "name": "SRN",
          "type": "string"
        },
        {
          "internalType": "string",
          "name": "Course",
          "type": "string"
        },
        {
          "internalType": "string",
          "name": "IPFSHash",
          "type": "string"
        }
      ],
      "stateMutability": "view",
      "type": "function",
      "constant": true
    },
    {
      "inputs": [
        {
          "internalType": "string",
          "name": "",
          "type": "string"
        }
      ],
      "name": "verifiedCertificates",
      "outputs": [
        {
          "internalType": "bool",
          "name": "",
          "type": "bool"
        }
      ],
      "stateMutability": "view",
      "type": "function",
      "constant": true
    },
    {
      "inputs": [
        {
          "internalType": "string",
          "name": "_name",
          "type": "string"
        },
        {
          "internalType": "string",
          "name": "_certificateIPFSHash",
          "type": "string"
        }
      ],
      "name": "verifyEligibility",
      "outputs": [],
      "stateMutability": "nonpayable",
      "type": "function"
    },
    {
      "inputs": [
        {
          "internalType": "address",
          "name": "_student",
          "type": "address"
        }
      ],
      "name": "isStudentEligible",
      "outputs": [
        {
          "internalType": "bool",
          "name": "",
          "type": "bool"
        }
      ],
      "stateMutability": "view",
      "type": "function",
      "constant": true
    },
    {
      "inputs": [
        {
          "internalType": "string",
          "name": "_Name",
          "type": "string"
        },
        {
          "internalType": "string",
          "name": "_SRN",
          "type": "string"
        },
        {
          "internalType": "string",
          "name": "_Course",
          "type": "string"
        },
        {
          "internalType": "uint256",
          "name": "Semester",
          "type": "uint256"
        }
      ],
      "name": "registerStudent",
      "outputs": [],
      "stateMutability": "nonpayable",
      "type": "function"
    },
    {
      "inputs": [
        {
          "internalType": "address",
          "name": "_student",
          "type": "address"
        }
      ],
      "name": "isStudentValid",
      "outputs": [
        {
          "internalType": "bool",
          "name": "",
          "type": "bool"
        }
      ],
      "stateMutability": "view",
      "type": "function",
      "constant": true
    },
    {
      "inputs": [
        {
          "internalType": "string",
          "name": "_srn",
          "type": "string"
        },
        {
          "internalType": "string",
          "name": "_course",
          "type": "string"
        },
        {
          "internalType": "string",
          "name": "_ipfsHash",
          "type": "string"
        }
      ],
      "name": "issueCertificate",
      "outputs": [],
      "stateMutability": "nonpayable",
      "type": "function"
    },
    {
      "inputs": [
        {
          "internalType": "string",
          "name": "_srn",
          "type": "string"
        }
      ],
      "name": "getCertificate",
      "outputs": [
        {
          "internalType": "string",
          "name": "",
          "type": "string"
        },
        {
          "internalType": "string",
          "name": "",
          "type": "string"
        },
        {
          "internalType": "string",
          "name": "",
          "type": "string"
        }
      ],
      "stateMutability": "view",
      "type": "function",
      "constant": true
    }
  ],
  "bytecode": "0x608060405234801561001057600080fd5b50611e09806100206000396000f3fe608060405234801561001057600080fd5b50600436106100935760003560e01c80635c6ee7bf116100665780635c6ee7bf1461013657806364d01891146101665780638f2b91ea14610196578063beec1caa146101c8578063ed0f2e75146101e457610093565b806303c7ed2f1461009857806306ef5c0b146100c85780632d03448b146100fe5780632faa72e31461011a575b600080fd5b6100b260048036038101906100ad9190611150565b610216565b6040516100bf9190611198565b60405180910390f35b6100e260048036038101906100dd9190611150565b61026e565b6040516100f5979695949392919061125c565b60405180910390f35b61011860048036038101906101139190611448565b6104ea565b005b610134600480360381019061012f9190611503565b61070b565b005b610150600480360381019061014b919061157b565b610881565b60405161015d9190611198565b60405180910390f35b610180600480360381019061017b9190611150565b6108b7565b60405161018d9190611198565b60405180910390f35b6101b060048036038101906101ab919061157b565b61090f565b6040516101bf939291906115c4565b60405180910390f35b6101e260048036038101906101dd9190611610565b610ae7565b005b6101fe60048036038101906101f9919061157b565b610e55565b60405161020d939291906115c4565b60405180910390f35b60008060008373ffffffffffffffffffffffffffffffffffffffff1673ffffffffffffffffffffffffffffffffffffffff16815260200190815260200160002060040160019054906101000a900460ff169050919050565b6000602052806000526040600020600091509050806000018054610291906116e6565b80601f01602080910402602001604051908101604052809291908181526020018280546102bd906116e6565b801561030a5780601f106102df5761010080835404028352916020019161030a565b820191906000526020600020905b8154815290600101906020018083116102ed57829003601f168201915b50505050509080600101805461031f906116e6565b80601f016020809104026020016040519081016040528092919081815260200182805461034b906116e6565b80156103985780601f1061036d57610100808354040283529160200191610398565b820191906000526020600020905b81548152906001019060200180831161037b57829003601f168201915b5050505050908060020180546103ad906116e6565b80601f01602080910402602001604051908101604052809291908181526020018280546103d9906116e6565b80156104265780601f106103fb57610100808354040283529160200191610426565b820191906000526020600020905b81548152906001019060200180831161040957829003601f168201915b5050505050908060030154908060040160009054906101000a900460ff16908060040160019054906101000a900460ff1690806005018054610467906116e6565b80601f0160208091040260200160405190810160405280929190818152602001828054610493906116e6565b80156104e05780601f106104b5576101008083540402835291602001916104e0565b820191906000526020600020905b8154815290600101906020018083116104c357829003601f168201915b5050505050905087565b6000803373ffffffffffffffffffffffffffffffffffffffff1673ffffffffffffffffffffffffffffffffffffffff16815260200190815260200160002060040160019054906101000a900460ff16610578576040517f08c379a000000000000000000000000000000000000000000000000000000000815260040161056f90611789565b60405180910390fd5b836000803373ffffffffffffffffffffffffffffffffffffffff1673ffffffffffffffffffffffffffffffffffffffff16815260200190815260200160002060000190816105c69190611955565b50826000803373ffffffffffffffffffffffffffffffffffffffff1673ffffffffffffffffffffffffffffffffffffffff16815260200190815260200160002060010190816106159190611955565b50806000803373ffffffffffffffffffffffffffffffffffffffff1673ffffffffffffffffffffffffffffffffffffffff16815260200190815260200160002060030181905550816000803373ffffffffffffffffffffffffffffffffffffffff1673ffffffffffffffffffffffffffffffffffffffff16815260200190815260200160002060020190816106aa9190611955565b5060016000803373ffffffffffffffffffffffffffffffffffffffff1673ffffffffffffffffffffffffffffffffffffffff16815260200190815260200160002060040160006101000a81548160ff02191690831515021790555050505050565b600081511161074f576040517f08c379a000000000000000000000000000000000000000000000000000000000815260040161074690611a73565b60405180910390fd5b600180826040516107609190611acf565b908152602001604051809103902060006101000a81548160ff021916908315150217905550816000803373ffffffffffffffffffffffffffffffffffffffff1673ffffffffffffffffffffffffffffffffffffffff16815260200190815260200160002060000190816107d39190611955565b5060016000803373ffffffffffffffffffffffffffffffffffffffff1673ffffffffffffffffffffffffffffffffffffffff16815260200190815260200160002060040160016101000a81548160ff021916908315150217905550806000803373ffffffffffffffffffffffffffffffffffffffff1673ffffffffffffffffffffffffffffffffffffffff168152602001908152602001600020600501908161087c9190611955565b505050565b6001818051602081018201805184825260208301602085012081835280955050505050506000915054906101000a900460ff1681565b60008060008373ffffffffffffffffffffffffffffffffffffffff1673ffffffffffffffffffffffffffffffffffffffff16815260200190815260200160002060040160009054906101000a900460ff169050919050565b600281805160208101820180518482526020830160208501208183528095505050505050600091509050806000018054610948906116e6565b80601f0160208091040260200160405190810160405280929190818152602001828054610974906116e6565b80156109c15780601f10610996576101008083540402835291602001916109c1565b820191906000526020600020905b8154815290600101906020018083116109a457829003601f168201915b5050505050908060010180546109d6906116e6565b80601f0160208091040260200160405190810160405280929190818152602001828054610a02906116e6565b8015610a4f5780601f10610a2457610100808354040283529160200191610a4f565b820191906000526020600020905b815481529060010190602001808311610a3257829003601f168201915b505050505090806002018054610a64906116e6565b80601f0160208091040260200160405190810160405280929190818152602001828054610a90906116e6565b8015610add5780601f10610ab257610100808354040283529160200191610add565b820191906000526020600020905b815481529060010190602001808311610ac057829003601f168201915b5050505050905083565b60008060003373ffffffffffffffffffffffffffffffffffffffff1673ffffffffffffffffffffffffffffffffffffffff1681526020019081526020016000206000018054610b35906116e6565b905003610b77576040517f08c379a0000000000000000000000000000000000000000000000000000000008152600401610b6e90611b32565b60405180910390fd5b82604051602001610b889190611acf565b604051602081830303815290604052805190602001206000803373ffffffffffffffffffffffffffffffffffffffff1673ffffffffffffffffffffffffffffffffffffffff168152602001908152602001600020600101604051602001610bef9190611bd5565b6040516020818303038152906040528051906020012014610c45576040517f08c379a0000000000000000000000000000000000000000000000000000000008152600401610c3c90611c38565b60405180910390fd5b81604051602001610c569190611acf565b604051602081830303815290604052805190602001206000803373ffffffffffffffffffffffffffffffffffffffff1673ffffffffffffffffffffffffffffffffffffffff168152602001908152602001600020600201604051602001610cbd9190611bd5565b6040516020818303038152906040528051906020012014610d13576040517f08c379a0000000000000000000000000000000000000000000000000000000008152600401610d0a90611ca4565b60405180910390fd5b6000600284604051610d259190611acf565b90815260200160405180910390206002018054610d41906116e6565b905014610d83576040517f08c379a0000000000000000000000000000000000000000000000000000000008152600401610d7a90611d10565b60405180910390fd5b604051806060016040528084815260200183815260200182815250600284604051610dae9190611acf565b90815260200160405180910390206000820151816000019081610dd19190611955565b506020820151816001019081610de79190611955565b506040820151816002019081610dfd9190611955565b5090505082604051610e0f9190611acf565b60405180910390207fc9aed1c64acf67836d70d23befa83b398ae1cc3d4dfae56bfe219d38128dd2438383604051610e48929190611d30565b60405180910390a2505050565b60608060606000600285604051610e6c9190611acf565b90815260200160405180910390206002018054610e88906116e6565b905003610eca576040517f08c379a0000000000000000000000000000000000000000000000000000000008152600401610ec190611db3565b60405180910390fd5b600284604051610eda9190611acf565b9081526020016040518091039020600001600285604051610efb9190611acf565b9081526020016040518091039020600101600286604051610f1c9190611acf565b9081526020016040518091039020600201828054610f39906116e6565b80601f0160208091040260200160405190810160405280929190818152602001828054610f65906116e6565b8015610fb25780601f10610f8757610100808354040283529160200191610fb2565b820191906000526020600020905b815481529060010190602001808311610f9557829003601f168201915b50505050509250818054610fc5906116e6565b80601f0160208091040260200160405190810160405280929190818152602001828054610ff1906116e6565b801561103e5780601f106110135761010080835404028352916020019161103e565b820191906000526020600020905b81548152906001019060200180831161102157829003601f168201915b50505050509150808054611051906116e6565b80601f016020809104026020016040519081016040528092919081815260200182805461107d906116e6565b80156110ca5780601f1061109f576101008083540402835291602001916110ca565b820191906000526020600020905b8154815290600101906020018083116110ad57829003601f168201915b505050505090509250925092509193909250565b6000604051905090565b600080fd5b600080fd5b600073ffffffffffffffffffffffffffffffffffffffff82169050919050565b600061111d826110f2565b9050919050565b61112d81611112565b811461113857600080fd5b50565b60008135905061114a81611124565b92915050565b600060208284031215611166576111656110e8565b5b60006111748482850161113b565b91505092915050565b60008115159050919050565b6111928161117d565b82525050565b60006020820190506111ad6000830184611189565b92915050565b600081519050919050565b600082825260208201905092915050565b60005b838110156111ed5780820151818401526020810190506111d2565b60008484015250505050565b6000601f19601f8301169050919050565b6000611215826111b3565b61121f81856111be565b935061122f8185602086016111cf565b611238816111f9565b840191505092915050565b6000819050919050565b61125681611243565b82525050565b600060e0820190508181036000830152611276818a61120a565b9050818103602083015261128a818961120a565b9050818103604083015261129e818861120a565b90506112ad606083018761124d565b6112ba6080830186611189565b6112c760a0830185611189565b81810360c08301526112d9818461120a565b905098975050505050505050565b600080fd5b600080fd5b7f4e487b7100000000000000000000000000000000000000000000000000000000600052604160045260246000fd5b611329826111f9565b810181811067ffffffffffffffff82111715611348576113476112f1565b5b80604052505050565b600061135b6110de565b90506113678282611320565b919050565b600067ffffffffffffffff821115611387576113866112f1565b5b611390826111f9565b9050602081019050919050565b82818337600083830152505050565b60006113bf6113ba8461136c565b611351565b9050828152602081018484840111156113db576113da6112ec565b5b6113e684828561139d565b509392505050565b600082601f830112611403576114026112e7565b5b81356114138482602086016113ac565b91505092915050565b61142581611243565b811461143057600080fd5b50565b6000813590506114428161141c565b92915050565b60008060008060808587031215611462576114616110e8565b5b600085013567ffffffffffffffff8111156114805761147f6110ed565b5b61148c878288016113ee565b945050602085013567ffffffffffffffff8111156114ad576114ac6110ed565b5b6114b9878288016113ee565b935050604085013567ffffffffffffffff8111156114da576114d96110ed565b5b6114e6878288016113ee565b92505060606114f787828801611433565b91505092959194509250565b6000806040838503121561151a576115196110e8565b5b600083013567ffffffffffffffff811115611538576115376110ed565b5b611544858286016113ee565b925050602083013567ffffffffffffffff811115611565576115646110ed565b5b611571858286016113ee565b9150509250929050565b600060208284031215611591576115906110e8565b5b600082013567ffffffffffffffff8111156115af576115ae6110ed565b5b6115bb848285016113ee565b91505092915050565b600060608201905081810360008301526115de818661120a565b905081810360208301526115f2818561120a565b90508181036040830152611606818461120a565b9050949350505050565b600080600060608486031215611629576116286110e8565b5b600084013567ffffffffffffffff811115611647576116466110ed565b5b611653868287016113ee565b935050602084013567ffffffffffffffff811115611674576116736110ed565b5b611680868287016113ee565b925050604084013567ffffffffffffffff8111156116a1576116a06110ed565b5b6116ad868287016113ee565b9150509250925092565b7f4e487b7100000000000000000000000000000000000000000000000000000000600052602260045260246000fd5b600060028204905060018216806116fe57607f821691505b602082108103611711576117106116b7565b5b50919050565b7f53747564656e74206d7573742076657269667920656c69676962696c6974792060008201527f6669727374000000000000000000000000000000000000000000000000000000602082015250565b60006117736025836111be565b915061177e82611717565b604082019050919050565b600060208201905081810360008301526117a281611766565b9050919050565b60008190508160005260206000209050919050565b60006020601f8301049050919050565b600082821b905092915050565b60006008830261180b7fffffffffffffffffffffffffffffffffffffffffffffffffffffffffffffffff826117ce565b61181586836117ce565b95508019841693508086168417925050509392505050565b6000819050919050565b600061185261184d61184884611243565b61182d565b611243565b9050919050565b6000819050919050565b61186c83611837565b61188061187882611859565b8484546117db565b825550505050565b600090565b611895611888565b6118a0818484611863565b505050565b5b818110156118c4576118b960008261188d565b6001810190506118a6565b5050565b601f821115611909576118da816117a9565b6118e3846117be565b810160208510156118f2578190505b6119066118fe856117be565b8301826118a5565b50505b505050565b600082821c905092915050565b600061192c6000198460080261190e565b1980831691505092915050565b6000611945838361191b565b9150826002028217905092915050565b61195e826111b3565b67ffffffffffffffff811115611977576119766112f1565b5b61198182546116e6565b61198c8282856118c8565b600060209050601f8311600181146119bf57600084156119ad578287015190505b6119b78582611939565b865550611a1f565b601f1984166119cd866117a9565b60005b828110156119f5578489015182556001820191506020850194506020810190506119d0565b86831015611a125784890151611a0e601f89168261191b565b8355505b6001600288020188555050505b505050505050565b7f496e76616c696420636572746966696361746520686173680000000000000000600082015250565b6000611a5d6018836111be565b9150611a6882611a27565b602082019050919050565b60006020820190508181036000830152611a8c81611a50565b9050919050565b600081905092915050565b6000611aa9826111b3565b611ab38185611a93565b9350611ac38185602086016111cf565b80840191505092915050565b6000611adb8284611a9e565b915081905092915050565b7f4e6f74206120726567697374657265642073747564656e740000000000000000600082015250565b6000611b1c6018836111be565b9150611b2782611ae6565b602082019050919050565b60006020820190508181036000830152611b4b81611b0f565b9050919050565b60008154611b5f816116e6565b611b698186611a93565b94506001821660008114611b845760018114611b9957611bcc565b60ff1983168652811515820286019350611bcc565b611ba2856117a9565b60005b83811015611bc457815481890152600182019150602081019050611ba5565b838801955050505b50505092915050565b6000611be18284611b52565b915081905092915050565b7f53524e206d69736d617463680000000000000000000000000000000000000000600082015250565b6000611c22600c836111be565b9150611c2d82611bec565b602082019050919050565b60006020820190508181036000830152611c5181611c15565b9050919050565b7f436f75727365206d69736d617463680000000000000000000000000000000000600082015250565b6000611c8e600f836111be565b9150611c9982611c58565b602082019050919050565b60006020820190508181036000830152611cbd81611c81565b9050919050565b7f436572746966696361746520616c726561647920657869737473000000000000600082015250565b6000611cfa601a836111be565b9150611d0582611cc4565b602082019050919050565b60006020820190508181036000830152611d2981611ced565b9050919050565b60006040820190508181036000830152611d4a818561120a565b90508181036020830152611d5e818461120a565b90509392505050565b7f4e6f20636572746966696361746520666f756e64000000000000000000000000600082015250565b6000611d9d6014836111be565b9150611da882611d67565b602082019050919050565b60006020820190508181036000830152611dcc81611d90565b905091905056fea26469706673582212207ab64e51ba8eec145148fbcb0c2790377880dc4a260a7dd26e829577b48aaaed64736f6c63430008130033",
  "immutableReferences": {},
  "source": "// SPDX-License-Identifier: MIT\npragma solidity ^0.8.19;\n\ncontract pesuniversity {\n\n    struct Student {\n        string Name;\n        string SRN;\n        string Course;\n        uint Semester;\n        bool isRegistered;\n        bool isEligible;\n        string certificateIPFSHash;\n    }\n\n    mapping(address => Student) public Students;\n    mapping(string => bool) public verifiedCertificates;\n\n    // Function to verify eligibility with 12th pass certificate\n    function verifyEligibility(string memory _name, string memory _certificateIPFSHash) public {\n        // Check if IPFS hash is not empty\n        require(bytes(_certificateIPFSHash).length > 0, \"Invalid certificate hash\");\n        \n        // Mark the certificate as verified\n        verifiedCertificates[_certificateIPFSHash] = true;\n        \n        // Update student eligibility status\n        Students[msg.sender].Name = _name;\n        Students[msg.sender].isEligible = true;\n        Students[msg.sender].certificateIPFSHash = _certificateIPFSHash;\n    }\n\n    // Check if student is eligible\n    function isStudentEligible(address _student) public view returns (bool) {\n        return Students[_student].isEligible;\n    }\n\n    function registerStudent(string memory _Name, string memory _SRN, string memory _Course, uint256 Semester) public {\n        // Require that student is eligible before registration\n        require(Students[msg.sender].isEligible, \"Student must verify eligibility first\");\n        \n        Students[msg.sender].Name = _Name;\n        Students[msg.sender].SRN = _SRN;\n        Students[msg.sender].Semester = Semester;\n        Students[msg.sender].Course = _Course;\n        Students[msg.sender].isRegistered = true;\n    }\n\n    function isStudentValid(address _student) public view returns (bool) {\n        return Students[_student].isRegistered;\n    }\n\n    struct CourseCertificate {\n        string SRN;\n        string Course;\n        string IPFSHash;\n    }\n\n    mapping(string => CourseCertificate) public certificates;\n\n    event CertificateIssued(string indexed srn, string course, string ipfsHash);\n\n    function issueCertificate(string memory _srn, string memory _course, string memory _ipfsHash) public {\n        require(bytes(Students[msg.sender].Name).length != 0, \"Not a registered student\");\n        require(keccak256(abi.encodePacked(Students[msg.sender].SRN)) == keccak256(abi.encodePacked(_srn)), \"SRN mismatch\");\n        require(keccak256(abi.encodePacked(Students[msg.sender].Course)) == keccak256(abi.encodePacked(_course)), \"Course mismatch\");\n        require(bytes(certificates[_srn].IPFSHash).length == 0, \"Certificate already exists\");\n\n        certificates[_srn] = CourseCertificate(_srn, _course, _ipfsHash);\n        emit CertificateIssued(_srn, _course, _ipfsHash);\n    }\n\n    function getCertificate(string memory _srn) public view returns (string memory, string memory, string memory) {\n        require(bytes(certificates[_srn].IPFSHash).length != 0, \"No certificate found\");\n        return (certificates[_srn].SRN, certificates[_srn].Course, certificates[_srn].IPFSHash);\n    }\n}",
  "sourcePath": "/home/kapple/Desktop/sem6/BC/DeciVerification/contracts/pesuniversity.sol",
  "compiler": {
    "name": "solc",
    "version": "0.8.19+commit.7dd6d404.Emscripten.clang"
  },
  "schemaVersion": "3.4.16",
  "updatedAt": "2025-04-14T07:36:25.821Z",
  "networkType": "ethereum",
  "devdoc": {
    "kind": "dev",
    "methods": {},
    "version": 1
  },
  "userdoc": {
    "kind": "user",
    "methods": {},
    "version": 1
  }
}