{
  "contractName": "universityVal",
  "abi": [
    {
      "inputs": [],
      "stateMutability": "nonpayable",
      "type": "constructor"
    },
    {
      "inputs": [],
      "name": "admin",
      "outputs": [
        {
          "internalType": "address",
          "name": "",
          "type": "address"
        }
      ],
      "stateMutability": "view",
      "type": "function",
      "constant": true
    },
    {
      "inputs": [
        {
          "internalType": "uint256",
          "name": "",
          "type": "uint256"
        }
      ],
      "name": "registeredIds",
      "outputs": [
        {
          "internalType": "string",
          "name": "",
          "type": "string"
        }
      ],
      "stateMutability": "view",
      "type": "function",
      "constant": true
    },
    {
      "inputs": [
        {
          "internalType": "string",
          "name": "",
          "type": "string"
        }
      ],
      "name": "universities",
      "outputs": [
        {
          "internalType": "string",
          "name": "name",
          "type": "string"
        },
        {
          "internalType": "string",
          "name": "ipfsHash",
          "type": "string"
        },
        {
          "internalType": "bool",
          "name": "isActive",
          "type": "bool"
        }
      ],
      "stateMutability": "view",
      "type": "function",
      "constant": true
    },
    {
      "inputs": [
        {
          "internalType": "string",
          "name": "_name",
          "type": "string"
        },
        {
          "internalType": "string",
          "name": "_regId",
          "type": "string"
        },
        {
          "internalType": "string",
          "name": "_ipfsHash",
          "type": "string"
        }
      ],
      "name": "registerUniversity",
      "outputs": [],
      "stateMutability": "nonpayable",
      "type": "function"
    },
    {
      "inputs": [
        {
          "internalType": "string",
          "name": "_regId",
          "type": "string"
        }
      ],
      "name": "verifyUniversity",
      "outputs": [
        {
          "internalType": "string",
          "name": "",
          "type": "string"
        },
        {
          "internalType": "string",
          "name": "",
          "type": "string"
        },
        {
          "internalType": "bool",
          "name": "",
          "type": "bool"
        }
      ],
      "stateMutability": "view",
      "type": "function",
      "constant": true
    },
    {
      "inputs": [
        {
          "internalType": "string",
          "name": "_regId",
          "type": "string"
        }
      ],
      "name": "removeUniversity",
      "outputs": [],
      "stateMutability": "nonpayable",
      "type": "function"
    },
    {
      "inputs": [],
      "name": "getAllUniversities",
      "outputs": [
        {
          "internalType": "string[]",
          "name": "",
          "type": "string[]"
        }
      ],
      "stateMutability": "view",
      "type": "function",
      "constant": true
    }
  ],
  "bytecode": "0x608060405234801561001057600080fd5b50336000806101000a81548173ffffffffffffffffffffffffffffffffffffffff021916908373ffffffffffffffffffffffffffffffffffffffff160217905550611a2c806100606000396000f3fe608060405234801561001057600080fd5b506004361061007d5760003560e01c8063856d54ab1161005b578063856d54ab146101165780639c9d49cf14610132578063f597d9941461014e578063f851a4401461016c5761007d565b80630bb001c01461008257806330475548146100b257806373de55b3146100e4575b600080fd5b61009c60048036038101906100979190610bdf565b61018a565b6040516100a99190610c9c565b60405180910390f35b6100cc60048036038101906100c79190610df3565b610236565b6040516100db93929190610e57565b60405180910390f35b6100fe60048036038101906100f99190610df3565b610432565b60405161010d93929190610e57565b60405180910390f35b610130600480360381019061012b9190610e9c565b61058f565b005b61014c60048036038101906101479190610df3565b610811565b005b610156610a3b565b604051610163919061104f565b60405180910390f35b610174610b14565b60405161018191906110b2565b60405180910390f35b6001818154811061019a57600080fd5b9060005260206000200160009150905080546101b5906110fc565b80601f01602080910402602001604051908101604052809291908181526020018280546101e1906110fc565b801561022e5780601f106102035761010080835404028352916020019161022e565b820191906000526020600020905b81548152906001019060200180831161021157829003601f168201915b505050505081565b606080600060028460405161024b9190611169565b908152602001604051809103902060020160009054906101000a900460ff166102a9576040517f08c379a00000000000000000000000000000000000000000000000000000000081526004016102a0906111cc565b60405180910390fd5b60006002856040516102bb9190611169565b90815260200160405180910390206040518060600160405290816000820180546102e4906110fc565b80601f0160208091040260200160405190810160405280929190818152602001828054610310906110fc565b801561035d5780601f106103325761010080835404028352916020019161035d565b820191906000526020600020905b81548152906001019060200180831161034057829003601f168201915b50505050508152602001600182018054610376906110fc565b80601f01602080910402602001604051908101604052809291908181526020018280546103a2906110fc565b80156103ef5780601f106103c4576101008083540402835291602001916103ef565b820191906000526020600020905b8154815290600101906020018083116103d257829003601f168201915b505050505081526020016002820160009054906101000a900460ff1615151515815250509050806000015181602001518260400151935093509350509193909250565b60028180516020810182018051848252602083016020850120818352809550505050505060009150905080600001805461046b906110fc565b80601f0160208091040260200160405190810160405280929190818152602001828054610497906110fc565b80156104e45780601f106104b9576101008083540402835291602001916104e4565b820191906000526020600020905b8154815290600101906020018083116104c757829003601f168201915b5050505050908060010180546104f9906110fc565b80601f0160208091040260200160405190810160405280929190818152602001828054610525906110fc565b80156105725780601f1061054757610100808354040283529160200191610572565b820191906000526020600020905b81548152906001019060200180831161055557829003601f168201915b5050505050908060020160009054906101000a900460ff16905083565b60008054906101000a900473ffffffffffffffffffffffffffffffffffffffff1673ffffffffffffffffffffffffffffffffffffffff163373ffffffffffffffffffffffffffffffffffffffff161461061d576040517f08c379a000000000000000000000000000000000000000000000000000000000815260040161061490611238565b60405180910390fd5b600060028360405161062f9190611169565b9081526020016040518091039020600001805461064b906110fc565b90501461068d576040517f08c379a0000000000000000000000000000000000000000000000000000000008152600401610684906112a4565b60405180910390fd5b60005b60018054905081101561074b5781805190602001206002600183815481106106bb576106ba6112c4565b5b906000526020600020016040516106d2919061138b565b90815260200160405180910390206001016040516106f09190611445565b604051809103902003610738576040517f08c379a000000000000000000000000000000000000000000000000000000000815260040161072f906114a8565b60405180910390fd5b8080610743906114f7565b915050610690565b5060405180606001604052808481526020018281526020016001151581525060028360405161077a9190611169565b9081526020016040518091039020600082015181600001908161079d91906116d6565b5060208201518160010190816107b391906116d6565b5060408201518160020160006101000a81548160ff02191690831515021790555090505060018290806001815401808255809150506001900390600052602060002001600090919091909150908161080b91906116d6565b50505050565b60008054906101000a900473ffffffffffffffffffffffffffffffffffffffff1673ffffffffffffffffffffffffffffffffffffffff163373ffffffffffffffffffffffffffffffffffffffff161461089f576040517f08c379a0000000000000000000000000000000000000000000000000000000008152600401610896906117f4565b60405180910390fd5b6002816040516108af9190611169565b908152602001604051809103902060020160009054906101000a900460ff1661090d576040517f08c379a000000000000000000000000000000000000000000000000000000000815260040161090490611860565b60405180910390fd5b600060028260405161091f9190611169565b908152602001604051809103902060020160006101000a81548160ff02191690831515021790555060005b600180549050811015610a3757818051906020012060018281548110610973576109726112c4565b5b9060005260206000200160405161098a9190611445565b604051809103902003610a245760018080805490506109a99190611880565b815481106109ba576109b96112c4565b5b90600052602060002001600182815481106109d8576109d76112c4565b5b9060005260206000200190816109ee91906118df565b506001805480610a0157610a006119c7565b5b600190038181906000526020600020016000610a1d9190610b38565b9055610a37565b8080610a2f906114f7565b91505061094a565b5050565b60606001805480602002602001604051908101604052809291908181526020016000905b82821015610b0b578382906000526020600020018054610a7e906110fc565b80601f0160208091040260200160405190810160405280929190818152602001828054610aaa906110fc565b8015610af75780601f10610acc57610100808354040283529160200191610af7565b820191906000526020600020905b815481529060010190602001808311610ada57829003601f168201915b505050505081526020019060010190610a5f565b50505050905090565b60008054906101000a900473ffffffffffffffffffffffffffffffffffffffff1681565b508054610b44906110fc565b6000825580601f10610b565750610b75565b601f016020900490600052602060002090810190610b749190610b78565b5b50565b5b80821115610b91576000816000905550600101610b79565b5090565b6000604051905090565b600080fd5b600080fd5b6000819050919050565b610bbc81610ba9565b8114610bc757600080fd5b50565b600081359050610bd981610bb3565b92915050565b600060208284031215610bf557610bf4610b9f565b5b6000610c0384828501610bca565b91505092915050565b600081519050919050565b600082825260208201905092915050565b60005b83811015610c46578082015181840152602081019050610c2b565b60008484015250505050565b6000601f19601f8301169050919050565b6000610c6e82610c0c565b610c788185610c17565b9350610c88818560208601610c28565b610c9181610c52565b840191505092915050565b60006020820190508181036000830152610cb68184610c63565b905092915050565b600080fd5b600080fd5b7f4e487b7100000000000000000000000000000000000000000000000000000000600052604160045260246000fd5b610d0082610c52565b810181811067ffffffffffffffff82111715610d1f57610d1e610cc8565b5b80604052505050565b6000610d32610b95565b9050610d3e8282610cf7565b919050565b600067ffffffffffffffff821115610d5e57610d5d610cc8565b5b610d6782610c52565b9050602081019050919050565b82818337600083830152505050565b6000610d96610d9184610d43565b610d28565b905082815260208101848484011115610db257610db1610cc3565b5b610dbd848285610d74565b509392505050565b600082601f830112610dda57610dd9610cbe565b5b8135610dea848260208601610d83565b91505092915050565b600060208284031215610e0957610e08610b9f565b5b600082013567ffffffffffffffff811115610e2757610e26610ba4565b5b610e3384828501610dc5565b91505092915050565b60008115159050919050565b610e5181610e3c565b82525050565b60006060820190508181036000830152610e718186610c63565b90508181036020830152610e858185610c63565b9050610e946040830184610e48565b949350505050565b600080600060608486031215610eb557610eb4610b9f565b5b600084013567ffffffffffffffff811115610ed357610ed2610ba4565b5b610edf86828701610dc5565b935050602084013567ffffffffffffffff811115610f0057610eff610ba4565b5b610f0c86828701610dc5565b925050604084013567ffffffffffffffff811115610f2d57610f2c610ba4565b5b610f3986828701610dc5565b9150509250925092565b600081519050919050565b600082825260208201905092915050565b6000819050602082019050919050565b600082825260208201905092915050565b6000610f8b82610c0c565b610f958185610f6f565b9350610fa5818560208601610c28565b610fae81610c52565b840191505092915050565b6000610fc58383610f80565b905092915050565b6000602082019050919050565b6000610fe582610f43565b610fef8185610f4e565b93508360208202850161100185610f5f565b8060005b8581101561103d578484038952815161101e8582610fb9565b945061102983610fcd565b925060208a01995050600181019050611005565b50829750879550505050505092915050565b600060208201905081810360008301526110698184610fda565b905092915050565b600073ffffffffffffffffffffffffffffffffffffffff82169050919050565b600061109c82611071565b9050919050565b6110ac81611091565b82525050565b60006020820190506110c760008301846110a3565b92915050565b7f4e487b7100000000000000000000000000000000000000000000000000000000600052602260045260246000fd5b6000600282049050600182168061111457607f821691505b602082108103611127576111266110cd565b5b50919050565b600081905092915050565b600061114382610c0c565b61114d818561112d565b935061115d818560208601610c28565b80840191505092915050565b60006111758284611138565b915081905092915050565b7f556e6976657273697479206e6f7420666f756e64206f722072656d6f76656400600082015250565b60006111b6601f83610c17565b91506111c182611180565b602082019050919050565b600060208201905081810360008301526111e5816111a9565b9050919050565b7f4f6e6c792061646d696e2063616e207265676973746572000000000000000000600082015250565b6000611222601783610c17565b915061122d826111ec565b602082019050919050565b6000602082019050818103600083015261125181611215565b9050919050565b7f556e697665727369747920616c72656164792065786973747300000000000000600082015250565b600061128e601983610c17565b915061129982611258565b602082019050919050565b600060208201905081810360008301526112bd81611281565b9050919050565b7f4e487b7100000000000000000000000000000000000000000000000000000000600052603260045260246000fd5b60008190508160005260206000209050919050565b60008154611315816110fc565b61131f818661112d565b9450600182166000811461133a576001811461134f57611382565b60ff1983168652811515820286019350611382565b611358856112f3565b60005b8381101561137a5781548189015260018201915060208101905061135b565b838801955050505b50505092915050565b60006113978284611308565b915081905092915050565b600081905092915050565b60008190508160005260206000209050919050565b600081546113cf816110fc565b6113d981866113a2565b945060018216600081146113f457600181146114095761143c565b60ff198316865281151582028601935061143c565b611412856113ad565b60005b8381101561143457815481890152600182019150602081019050611415565b838801955050505b50505092915050565b600061145182846113c2565b915081905092915050565b7f49504653206861736820616c7265616479207573656400000000000000000000600082015250565b6000611492601683610c17565b915061149d8261145c565b602082019050919050565b600060208201905081810360008301526114c181611485565b9050919050565b7f4e487b7100000000000000000000000000000000000000000000000000000000600052601160045260246000fd5b600061150282610ba9565b91507fffffffffffffffffffffffffffffffffffffffffffffffffffffffffffffffff8203611534576115336114c8565b5b600182019050919050565b60006020601f8301049050919050565b600082821b905092915050565b60006008830261158c7fffffffffffffffffffffffffffffffffffffffffffffffffffffffffffffffff8261154f565b611596868361154f565b95508019841693508086168417925050509392505050565b6000819050919050565b60006115d36115ce6115c984610ba9565b6115ae565b610ba9565b9050919050565b6000819050919050565b6115ed836115b8565b6116016115f9826115da565b84845461155c565b825550505050565b600090565b611616611609565b6116218184846115e4565b505050565b5b818110156116455761163a60008261160e565b600181019050611627565b5050565b601f82111561168a5761165b816112f3565b6116648461153f565b81016020851015611673578190505b61168761167f8561153f565b830182611626565b50505b505050565b600082821c905092915050565b60006116ad6000198460080261168f565b1980831691505092915050565b60006116c6838361169c565b9150826002028217905092915050565b6116df82610c0c565b67ffffffffffffffff8111156116f8576116f7610cc8565b5b61170282546110fc565b61170d828285611649565b600060209050601f831160018114611740576000841561172e578287015190505b61173885826116ba565b8655506117a0565b601f19841661174e866112f3565b60005b8281101561177657848901518255600182019150602085019450602081019050611751565b86831015611793578489015161178f601f89168261169c565b8355505b6001600288020188555050505b505050505050565b7f4f6e6c792061646d696e2063616e2072656d6f76650000000000000000000000600082015250565b60006117de601583610c17565b91506117e9826117a8565b602082019050919050565b6000602082019050818103600083015261180d816117d1565b9050919050565b7f556e697665727369747920616c72656164792072656d6f766564000000000000600082015250565b600061184a601a83610c17565b915061185582611814565b602082019050919050565b600060208201905081810360008301526118798161183d565b9050919050565b600061188b82610ba9565b915061189683610ba9565b92508282039050818111156118ae576118ad6114c8565b5b92915050565b6000815490506118c3816110fc565b9050919050565b60008190508160005260206000209050919050565b8181036118ed5750506119c5565b6118f6826118b4565b67ffffffffffffffff81111561190f5761190e610cc8565b5b61191982546110fc565b611924828285611649565b6000601f8311600181146119535760008415611941578287015490505b61194b85826116ba565b8655506119be565b601f198416611961876118ca565b965061196c866112f3565b60005b828110156119945784890154825560018201915060018501945060208101905061196f565b868310156119b157848901546119ad601f89168261169c565b8355505b6001600288020188555050505b5050505050505b565b7f4e487b7100000000000000000000000000000000000000000000000000000000600052603160045260246000fdfea2646970667358221220d86e02fb11a66c809f9d2fa581d4bf180e2d5c1476207917167ab91a0a25b40d64736f6c63430008130033",
  "immutableReferences": {},
  "source": "// SPDX-License-Identifier: MIT\npragma solidity ^0.8.19;\n\ncontract universityVal {\n    struct University {\n        string name;\n        string ipfsHash; // IPFS Proof (Accreditation Documents)\n        bool isActive;\n    }\n\n    address public admin;\n    string[] public registeredIds; // Store university regIds\n    mapping(string => University) public universities; // regId -> University\n\n    constructor() {\n        admin = msg.sender;\n    }\n\n    function registerUniversity(string memory _name, string memory _regId, string memory _ipfsHash) public {\n        require(msg.sender == admin, \"Only admin can register\");\n        require(bytes(universities[_regId].name).length == 0, \"University already exists\");\n\n        // Prevent duplicate IPFS hashes\n        for (uint i = 0; i < registeredIds.length; i++) {\n            require(keccak256(bytes(universities[registeredIds[i]].ipfsHash)) != keccak256(bytes(_ipfsHash)), \"IPFS hash already used\");\n    }\n\n    universities[_regId] = University(_name, _ipfsHash, true);\n    registeredIds.push(_regId);\n}\n\n\n    function verifyUniversity(string memory _regId) public view returns (string memory, string memory, bool) {\n        require(universities[_regId].isActive, \"University not found or removed\");\n        University memory uni = universities[_regId];\n        return (uni.name, uni.ipfsHash, uni.isActive);\n    }\n\n    function removeUniversity(string memory _regId) public {\n        require(msg.sender == admin, \"Only admin can remove\");\n        require(universities[_regId].isActive, \"University already removed\");\n\n        universities[_regId].isActive = false;\n\n        for (uint i = 0; i < registeredIds.length; i++) {\n            if (keccak256(bytes(registeredIds[i])) == keccak256(bytes(_regId))) {\n                registeredIds[i] = registeredIds[registeredIds.length - 1]; // Move last element to deleted index\n                registeredIds.pop(); // Remove last element\n                break;\n            }\n    }\n    }\n\n    function getAllUniversities() public view returns (string[] memory) {\n        return registeredIds;\n    }\n}\n",
  "sourcePath": "/home/kapple/icons/sem6/BC/DeciVerification/contracts/universityVal.sol",
  "compiler": {
    "name": "solc",
    "version": "0.8.19+commit.7dd6d404.Emscripten.clang"
  },
  "schemaVersion": "3.4.16",
  "updatedAt": "2025-04-28T12:23:28.862Z",
  "networkType": "ethereum",
  "devdoc": {
    "kind": "dev",
    "methods": {},
    "version": 1
  },
  "userdoc": {
    "kind": "user",
    "methods": {},
    "version": 1
  }
}